:100000000C9434000C9451000C9451000C94510049
:100010000C9451000C9451000C9451000C9451001C
:100020000C9451000C9451000C9451000C9451000C
:100030000C9451000C9451000C9451000C945100FC
:100040000C9451000C9451000C9451000C945100EC
:100050000C9451000C9451000C9451000C945100DC
:100060000C947E000C94510011241FBECFEFD8E0F9
:10007000DEBFCDBF11E0A0E0B1E0ECEDF5E002C0E5
:1000800005900D92A231B107D9F721E0A2E1B1E0CC
:1000900001C01D92A331B207E1F70E94BF000C948A
:1000A000EC020C94000097B19F7C97B998B19F7CAB
:1000B00098B9880F8093BA0085EC8093BC000895AE
:1000C000DC0140E050E090E012C0FD01E90FF11DBD
:1000D00030812BB12F70232B2BB99F5F9770EFE3EB
:1000E000FFE13197F1F700C000004E5F5F4F461708
:1000F000570758F38BB18F708BB908951F920F92E9
:100100000FB60F9211248F938091B900887F8039A8
:1001100099F038F4883661F0803871F0803631F526
:1001200007C0803B99F0883BC9F0883AF9F40EC0CB
:1001300085EC8093BC001DC08091BB00823010F420
:100140008093000185EC8093BC0013C08091120164
:100150008093BB0085EC8093BC000BC080911201A2
:100160008093BB0085EC8093BC0003C085EC80933A
:10017000BC008F910F900FBE0F901F9018958AB101
:100180008B7F8AB98BB184608BB98AB1806F8AB951
:100190008BB18F708BB90E94120160E070E0CB01CF
:1001A0000E94220184E10E9453007894DFEF99B10C
:1001B00081E0292F247092FF80E0C82F80931201E4
:1001C000D817B9F0222359F08FEF8093000168E827
:1001D00073E189E091E00E946000DC2F0AC08FEF9C
:1001E0008093000168E873E181E091E00E94600083
:1001F000DC2F80910001813039F460E070E084EB05
:1002000092E40E94220107C0811105C060E070E005
:10021000CB010E9422018FE39CE90197F1F700C016
:100220000000C5CF84B1826084B982E880938000E9
:100230008AE1809381008FE39CE99093870080930B
:1002400086000895CF92DF92EF92FF926B017C01BE
:1002500020E030E044E353E40E947A02181644F4AC
:100260000F2EC12CD12CF4E3EF2EF3E4FF2EF02D52
:1002700020E030E0A901C701B6010E945F01882398
:100280001CF4C12CD12C760120E030E044E353E48F
:10029000C701B6010E94640120E030E04AE755E45E
:1002A0000E947F020E94D60168517C4F70938900A2
:1002B00060938800FF90EF90DF90CF9008950E94A8
:1002C000050208F481E008950E9478010C94400230
:1002D0000E94390258F00E94320240F029F45F3F38
:1002E00029F00C94290251110C9474020C942F02E1
:1002F0000E94510268F39923B1F3552391F3951BA2
:10030000550BBB27AA2762177307840738F09F5F36
:100310005F4F220F331F441FAA1FA9F335D00E2EA3
:100320003AF0E0E832D091505040E695001CCAF710
:100330002BD0FE2F29D0660F771F881FBB1F2617D3
:1003400037074807AB07B0E809F0BB0B802DBF01AA
:10035000FF2793585F4F3AF09E3F510578F00C9479
:1003600029020C9474025F3FE4F3983ED4F386951F
:1003700077956795B795F7959F5FC9F7880F911D9A
:100380009695879597F90895E1E0660F771F881F86
:10039000BB1F621773078407BA0720F0621B730B39
:1003A000840BBA0BEE1F88F7E09508950E9459025E
:1003B00088F09F5798F0B92F9927B751B0F0E1F026
:1003C000660F771F881F991F1AF0BA95C9F714C0D6
:1003D000B13091F00E947302B1E008950C94730261
:1003E000672F782F8827B85F39F0B93FCCF386950F
:1003F00077956795B395D9F73EF49095809570956C
:1004000061957F4F8F4F9F4F0895990F0008550FAB
:10041000AA0BE0E8FEEF16161706E807F907C0F08A
:1004200012161306E407F50798F0621B730B840B92
:10043000950B39F40A2661F0232B242B252B21F46C
:1004400008950A2609F4A140A6958FEF811D811D0C
:10045000089597F99F6780E870E060E008959FEF46
:1004600080EC089500240A9416161706180609064B
:10047000089500240A94121613061406050608951A
:10048000092E0394000C11F4882352F0BB0F40F4A2
:10049000BF2B11F460FF04C06F5F7F4F8F4F9F4FE2
:1004A000089557FD9058440F551F59F05F3F71F064
:1004B0004795880F97FB991F61F09F3F79F08795CB
:1004C0000895121613061406551FF2CF4695F1DF54
:1004D00008C0161617061806991FF1CF86957105E4
:1004E000610508940895E894BB2766277727CB0118
:1004F00097F908950E94050208F48FEF08950E946D
:1005000092020C9440020E94320238F00E9439029A
:1005100020F0952311F00C9429020C942F02112441
:100520000C9474020E94510270F3959FC1F3950FD1
:1005300050E0551F629FF001729FBB27F00DB11D67
:10054000639FAA27F00DB11DAA1F649F6627B00DF7
:10055000A11D661F829F2227B00DA11D621F739FE0
:10056000B00DA11D621F839FA00D611D221F749FEE
:100570003327A00D611D231F849F600D211D822F35
:10058000762F6A2F11249F5750409AF0F1F088235C
:100590004AF0EE0FFF1FBB1F661F771F881F915089
:1005A0005040A9F79E3F510580F00C9429020C940D
:1005B00074025F3FE4F3983ED4F386957795679590
:1005C000B795F795E7959F5FC1F7FE2B880F911DB3
:0C05D0009695879597F90895F894FFCF51
:1005DC00FF109080C0406020301030206040C08000
:0205EC0090007D
:00000001FF
