S0120000656A656D706C6F4932432E7372656368
S11300000C9434000C9446000C9446000C94460066
S11300100C9446000C9446000C9446000C94460044
S11300200C9446000C9446000C9446000C94460034
S11300300C9446000C9446000C9446000C94460024
S11300400C9446000C9446000C9446000C94460014
S11300500C9446000C9446000C9446000C94460004
S11300600C9455000C94460011241FBECFEFD8E029
S1130070DEBFCDBF21E0A0E0B1E001C01D92A230FF
S1130080B207E1F70E94A5000C94B6000C9400009E
S113009097B19F7C97B998B19F7C98B9880F80934A
S11300A0BA0085EC8093BC0008951F920F920FB69E
S11300B00F9211248F938091B900887F803999F031
S11300C038F4883661F0803871F08036A9F507C0BD
S11300D0803BE1F0883B41F1883A71F517C085EC2B
S11300E08093BC002CC08091BB0080930001809160
S11300F00001882321F085B1816085B903C085B1F1
S11301008E7F85B985EC8093BC0019C089B182FBD0
S1130110882780F980930101809101018093BB00BD
S113012085EC8093BC000BC0809101018093BB00DF
S113013085EC8093BC0003C085EC8093BC008F9158
S11301400F900FBE0F901F9018958AB18B7F8AB9BC
S11301508BB184608BB984B1816084B985B18E7FA1
S113016085B982E10E9448007894FFCFF894FFCFCC
S9030000FC
