:100000000C94B1000C94CE000C94CE000C94CE0055
:100010000C94CE000C94CE000C94CE000C94CE0028
:100020000C94CE000C94CE000C94CE000C94CE0018
:100030000C94CE000C94CE000C9482030C94CE0051
:100040000C94CE000C94CE000C94A7030C94CE001C
:100050000C94CE000C94CE000C94CE000C94CE00E8
:100060000C94CE000C94CE0000407A10F35A00A0FD
:10007000724E18090010A5D4E80000E87648170071
:1000800000E40B54020000CA9A3B000000E1F505B1
:10009000000080969800000040420F000000A086FB
:1000A00001000000102700000000E803000000002D
:1000B0006400000000000A000000000001000000D1
:1000C00000002C76D888DC674F0823DFC1DFAE59EB
:1000D000E1B1B796E5E3E453C63AE651997696E87E
:1000E000E6C28426EB898C9B62ED407C6FFCEFBC02
:1000F0009C9F40F2BAA56FA5F490055A2AF75C932D
:100100006B6CF9676DC11BFCE0E40D47FEF520E662
:10011000B500D0ED902E0300943577050080841E45
:10012000080000204E0A000000C80C333333330FA0
:10013000986E12831141EF8D2114893BE65516CF3D
:10014000FEE6DB18D1844B381BF77C1D901DA4BB49
:10015000E424203284725E228100C9F124ECA1E5FE
:100160003D2711241FBECFEFD8E0DEBFCDBF11E089
:10017000A0E0B1E0ECE8F5E102C005900D92A036F8
:10018000B107D9F721E0A0E6B1E001C01D92AA367F
:10019000B207E1F70E94D7030C94C40A0C94000044
:1001A0000F931F93CF938B019C01C42F87B18F7C3A
:1001B00087B9443079F018F4413031F023C0403130
:1001C00091F04034C9F01EC0E9EBF0E080818C7FF3
:1001D00080831EC0E9EBF0E080818D7F8083808189
:1001E0008160808315C0E9EBF0E080818E7F8083A1
:1001F0008081826080830CC0E9EBF0E080818360C5
:10020000808306C0E9EBF0E080818C7F8083C1E0D1
:1002100060E074E284EF90E0A90198010E94D907A0
:10022000CA01B90160517109810991094C2F50E04F
:100230009A01220F331F032E000C440B550B0E9412
:10024000D9072093B800ECEBF0E0808184608083D4
:10025000CF911F910F91089584EA8093BC00809103
:10026000BC008823E4F79091B900987F81E0983032
:1002700009F080E0089584E98093BC008091BC007F
:1002800084FDFCCF08958093BB0084E88093BC007C
:100290008091BC008823E4F78091B900887F883181
:1002A00021F0883219F481E0089581E00895FC017D
:1002B000662321F084EC8093BC0003C084E8809323
:1002C000BC009091BC009923E4F79091B900987F0D
:1002D000662311F0903549F4611102C0983539F464
:1002E0008091BB00808381E0089580E0089580E0E4
:1002F000089580FF04C09BB190629BB903C09BB17D
:100300009F7D9BB981FF04C09BB190649BB903C0E2
:100310009BB19F7B9BB982FF04C09BB190689BB946
:1003200003C09BB19F779BB983FF04C095B19160D7
:1003300095B903C095B19E7F95B984FF04C095B16E
:10034000926095B903C095B19D7F95B985FF04C0B2
:1003500095B1946095B903C095B19B7F95B986FF1F
:1003600004C095B1986095B903C095B1977F95B9D0
:10037000882324F485B1806185B9089585B18F7E85
:1003800085B908959BB19B7F9BB90E9479018BB180
:1003900080618BB985E18A95F1F700008BB18F7E82
:1003A0008BB987EC90E00197F1F700C00000089549
:1003B0008FEF8AB984B91BB815B82FEF89EF90E099
:1003C000215080409040E1F700C0000080E30E948F
:1003D000C2018FE19EE40197F1F700C0000080E3C5
:1003E0000E94C20187E592E00197F1F700C000008A
:1003F00080E30E94C20187E592E00197F1F700C017
:10040000000088E30E94C20187EC90E00197F1F7B9
:1004100000C0000088E00E94C20187EC90E00197D4
:10042000F1F700C0000081E00E94C2018FED9EE262
:100430000197F1F700C0000086E00E94C20187EC3E
:1004400090E00197F1F700C000008CE00E94C2012B
:1004500087EC90E00197F1F700C0000008959BB190
:1004600094609BB90E9479018BB180618BB985E062
:100470008A95F1F700008BB18F7E8BB987EC90E005
:100480000197F1F700C0000008950F931F93CF93D9
:10049000DF938C01C0E0D0E003C00E942F022196C0
:1004A000F801EC0FFD1F80818111F7CFDF91CF9113
:1004B0001F910F91089588E10E94C2010895613053
:1004C00019F49FE7980F04C0623011F49FEB980F66
:1004D000892F0E94C2010895CF93DF93D82F0E94E5
:1004E0002C01C82F8823A9F088E20E944301C82F5D
:1004F000811103C00E943B010CC08D2F0E9443015B
:10050000C82F811103C00E943B0103C00E943B0120
:10051000C1E08C2FDF91CF910895CF93DF93D82F37
:100520000E942C01C82F8823A9F084E20E94430175
:10053000C82F811103C00E943B010CC08D2F0E9467
:100540004301C82F811103C00E943B0103C00E94D8
:100550003B01C1E08C2FDF91CF9108950F931F9342
:10056000CF938C010E942C01C82F8823B1F085E223
:100570000E944301C82F811103C00E943B010DC09E
:1005800060E0C8010E945701C82F811103C00E947A
:100590003B0103C00E943B01C1E08C2FCF911F9112
:1005A0000F9108950F931F93CF938C010E942C01FC
:1005B000C82F8823B1F089E20E944301C82F81111E
:1005C00003C00E943B010DC060E0C8010E945701BA
:1005D000C82F811103C00E943B0103C00E943B0150
:1005E000C1E08C2FCF911F910F910895EF92FF9250
:1005F0000F931F93CF93DF9300D000D000D0CDB7DF
:10060000DEB77C010E942C01182F882309F46CC0EE
:1006100088E80E944301182F811103C00E943B010A
:1006200063C084E20E94430180E00E9443010E9473
:100630003B012FEF89EF90E0215080409040E1F79F
:1006400000C000000E942C01182F882309F44CC020
:1006500089E80E944301182F811114C00E943B01B8
:1006600043C061E081E090E08C0F9D1F800F911DE1
:100670000E945701182F811103C00E943B0134C012
:100680000F5F01C000E0053060F360E0CE01069628
:100690000E945701182F811103C00E943B0124C002
:1006A0000E943B01698170E0762F66278A81682B62
:1006B00080E090E00E94B50620E03FEF4FE757E46E
:1006C0000E94430620E030E04FE253E40E946C07B2
:1006D00020E030E044E352E40E94D105F70160835A
:1006E00071838283938311E0812F26960FB6F8944D
:1006F000DEBF0FBECDBFDF91CF911F910F91FF9055
:10070000EF9008951F920F920FB60F9211248F93BE
:100710009F93AF93BF938091600190916101A091ED
:100720006201B09163010196A11DB11D809360012A
:1007300090936101A0936201B0936301BF91AF9167
:100740009F918F910F900FBE0F901F9018951F9241
:100750000F920FB60F9211248F938091C600809153
:10076000C00085FFFCCF8F910F900FBE0F901F90A0
:10077000189584B5826084BD85B5836085BD89EF99
:1007800087BDEEE6F0E08081826080830895F89472
:1007900021E009C060916001709161018091620166
:1007A0009091630120E02111F5CF78940895CF93C3
:1007B000DF93CDB7DEB76E970FB6F894DEBF0FBEEE
:1007C000CDBFF8940E94610541E060EA76E881E0DF
:1007D00090E00E94D00081E091E00E947D050E949F
:1007E000D80161E081E00E945F028CE291E00E940A
:1007F000450261E088E00E945F0281E391E00E948F
:10080000450261E08DE00E945F0285E391E00E9475
:10081000450261E082E10E945F028AE391E00E946A
:10082000450261E088E10E945F0280E491E00E945D
:10083000450261E08DE10E945F0285E491E00E9443
:1008400045020E94B9037894812C912C5401412CCB
:10085000512C32010E94C7036B017C018091000181
:10086000823661F0873731F0813661F481E0809320
:1008700067010EC081E0809366010AC081E0809329
:10088000650106C010926701109266011092650121
:10089000D701C60184199509A609B709843F91407B
:1008A000A105B10508F4FCC01D8A1E8A1F8A188E96
:1008B000CE0145960E94F602182F1A8ECE014A9656
:1008C0000E94AE02482E198ECE0149960E94D20295
:1008D000582E8D899E89AF89B88D8B8F9C8FAD8F57
:1008E000BE8F20E030E040EC51E4BC01CD010E941D
:1008F000670718165CF480916401811107C081E0DC
:100900000E946C0281E08093640115C020E030E019
:1009100040EC51E46B8D7C8D8D8D9E8D0E943E064A
:1009200018164CF080916401882329F080E00E9421
:100930006C02109264018A8D77247394811101C036
:10094000712C672C811111C062E088E00E945F0267
:100950008CE491E00E94450262E083E10E945F0224
:1009600080E591E00E94450210C062E088E00E94AC
:100970005F0284E591E00E94450262E083E10E940B
:100980005F0288E591E00E944502442049F0809191
:100990006901681629F0862D0E948D026092690116
:1009A000898D66246394813009F4612C062D813091
:1009B00089F462E08DE00E945F028CE491E00E9485
:1009C000450262E088E10E945F0280E591E00E94BA
:1009D000450210C062E08DE00E945F0284E591E074
:1009E0000E94450262E088E10E945F0288E591E092
:1009F0000E944502552029F0809168010813009358
:100A000068011123C9F06D897E898F89988D0E94B4
:100A100090056D897E898F89988D8E010F5F1F4F9C
:100A200022E046E00E94FB0762E081E00E945F0254
:100A3000C8010E94450204C08CE591E00E947D053A
:100A400081E20E947605442029F08A8D90E00E9480
:100A5000B30504C08CE591E00E947D0581E20E940F
:100A60007605552029F0898D90E00E94B30504C0D9
:100A70008CE591E00E947D0581E20E947605872D3C
:100A800090E00E94B30581E20E947605862D90E0F9
:100A90000E94B30589E291E00E947D05260137019D
:100AA000D701C60188199909AA09BB09883E934054
:100AB000A105B10508F4CECE0E945B0246015701A4
:100AC000C9CE8AB182608AB98AB18E7F8AB9109202
:100AD000C00088E98093C10086E08093C20087E669
:100AE00090E09093C5008093C40008959091C00059
:100AF00095FFFCCF8093C60008950F931F93CF936B
:100B00008C01C0E003C00E947605CF5FF801EC0FB6
:100B1000F11D80818111F7CFCF911F910F91089521
:100B20000F931F93CF93DF93CDB7DEB764970FB6C4
:100B3000F894DEBF0FBECDBF8E010F5F1F4F22E0C6
:100B400030E046E050E00E94FB07C8010E947D05AE
:100B500064960FB6F894DEBF0FBECDBFDF91CF9184
:100B60001F910F910895CF93DF93CDB7DEB72897EC
:100B70000FB6F894DEBF0FBECDBF4AE050E0BE0115
:100B80006F5F7F4F0E941B08CE0101960E947D057A
:100B900028960FB6F894DEBF0FBECDBFDF91CF9180
:100BA00008955058BB27AA270E94E9050C942D07E9
:100BB0000E941F0738F00E94260720F039F49F3F5B
:100BC00019F426F40C941C070EF4E095E7FB0C9442
:100BD0001607E92F0E943E0758F3BA1762077307FA
:100BE0008407950720F079F4A6F50C9460070EF4BD
:100BF000E0950B2EBA2FA02D0B01B90190010C012D
:100C0000CA01A0011124FF27591B99F0593F50F444
:100C1000503E68F11A16F040A22F232F342F44279C
:100C2000585FF3CF469537952795A795F040539594
:100C3000C9F77EF41F16BA0B620B730B840BBAF064
:100C40009150A1F0FF0FBB1F661F771F881FC2F7CF
:100C50000EC0BA0F621F731F841F48F487957795E3
:100C60006795B795F7959E3F08F0B0CF9395880F9D
:100C700008F09927EE0F9795879508950E94F20640
:100C800008F481E008950E9457060C942D070E94F5
:100C9000260758F00E941F0740F029F45F3F29F013
:100CA0000C94160751110C9461070C941C070E94B8
:100CB0003E0768F39923B1F3552391F3951B550B28
:100CC000BB27AA2762177307840738F09F5F5F4F1F
:100CD000220F331F441FAA1FA9F335D00E2E3AF05E
:100CE000E0E832D091505040E695001CCAF72BD076
:100CF000FE2F29D0660F771F881FBB1F26173707C7
:100D00004807AB07B0E809F0BB0B802DBF01FF27F8
:100D100093585F4F3AF09E3F510578F00C941607B8
:100D20000C9461075F3FE4F3983ED4F38695779582
:100D30006795B795F7959F5FC9F7880F911D9695B1
:100D4000879597F90895E1E0660F771F881FBB1F0D
:100D5000621773078407BA0720F0621B730B840BBA
:100D6000BA0BEE1F88F7E0950895E89409C097FB49
:100D70003EF490958095709561957F4F8F4F9F4F72
:100D80009923A9F0F92F96E9BB279395F6958795B6
:100D900077956795B795F111F8CFFAF4BB0F11F479
:100DA00060FF1BC06F5F7F4F8F4F9F4F16C0882320
:100DB00011F096E911C0772321F09EE8872F762F56
:100DC00005C0662371F096E8862F70E060E02AF097
:100DD0009A95660F771F881FDAF7880F9695879583
:100DE00097F90895990F0008550FAA0BE0E8FEEF58
:100DF00016161706E807F907C0F012161306E407DF
:100E0000F50798F0621B730B840B950B39F40A26D7
:100E100061F0232B242B252B21F408950A2609F4B5
:100E2000A140A6958FEF811D811D089597F99F67B9
:100E300080E870E060E008959FEF80EC0895002462
:100E40000A941616170618060906089500240A942F
:100E500012161306140605060895092E0394000CB5
:100E600011F4882352F0BB0F40F4BF2B11F460FF44
:100E700004C06F5F7F4F8F4F9F4F089557FD90586D
:100E8000440F551F59F05F3F71F04795880F97FB4E
:100E9000991F61F09F3F79F0879508951216130608
:100EA0001406551FF2CF4695F1DF08C01616170637
:100EB0001806991FF1CF869571056105089408956C
:100EC000E894BB2766277727CB0197F908950E94FE
:100ED000F20608F48FEF08950E947F070C942D0707
:100EE0000E941F0738F00E94260720F0952311F07A
:100EF0000C9416070C941C0711240C9461070E9493
:100F00003E0770F3959FC1F3950F50E0551F629F08
:100F1000F001729FBB27F00DB11D639FAA27F00D52
:100F2000B11DAA1F649F6627B00DA11D661F829F79
:100F30002227B00DA11D621F739FB00DA11D621F5E
:100F4000839FA00D611D221F749F3327A00D611D7B
:100F5000231F849F600D211D822F762F6A2F11245D
:100F60009F5750409AF0F1F088234AF0EE0FFF1F90
:100F7000BB1F661F771F881F91505040A9F79E3FE7
:100F8000510580F00C9416070C9461075F3FE4F361
:100F9000983ED4F3869577956795B795F795E7953D
:100FA0009F5FC1F7FE2B880F911D9695879597F946
:100FB0000895A1E21A2EAA1BBB1BFD010DC0AA1F9A
:100FC000BB1FEE1FFF1FA217B307E407F50720F0B2
:100FD000A21BB30BE40BF50B661F771F881F991F2D
:100FE0001A9469F760957095809590959B01AC0176
:100FF000BD01CF010895EF920F931F93CF93DF931D
:10100000E80147FD02C034E001C034E1042E000CC9
:10101000550B57FF03C0519541955109E32E022FFF
:10102000242FAE010E944B08CE01DF91CF911F917A
:101030000F91EF9008954532510520F4423010F0A1
:101040000C942608FB011082CB010895BB274A307F
:1010500031F4992322F4BDE2909581959F4F0C9431
:101060003208BB27FB015527AA27880F991FAA1F03
:10107000A41710F0A41B83955051B9F7A05DAA33B3
:1010800008F0A95DA193009779F7B111B19311927E
:10109000CB010C947D0AA9E0B0E0E1E5F8E00C9406
:1010A000930A6A01122FB02E2BE3201720F0FF24A1
:1010B000F394F00E02C02CE3F22E0F2D27E0AE01C8
:1010C0004F5F5F4F0E94A509BC014981842F897041
:1010D000813031F0E1FC06C0E0FE06C090E205C0C0
:1010E0009DE203C09BE201C090E05E2D507143FF82
:1010F0003CC0911102C083E001C084E0811718F464
:10110000212F281B01C020E051110BC0F601822FB6
:1011100030E2882319F031938150FBCFC20ED11CED
:1011200020E0992329F0D6019C93F60131966F01B6
:10113000C6010396E2FE0AC03EE4D6013C9341E4B8
:1011400011964C93119712963C9306C03EE6F60119
:10115000308341E641833283FC01322F40E2332366
:1011600009F442C041933150FACF42FF44C091117B
:1011700002C083E001C084E0811718F4212F281BEE
:1011800001C020E051110BC0F601822F30E288230C
:1011900019F031938150FBCFC20ED11C20E099236E
:1011A00029F0D6019C93F60131966F01C601039692
:1011B000E2FE0BC039E4D6013C933EE411963C9329
:1011C000119736E412963C9307C039E6F601308356
:1011D0003EE6318336E63283FC01322F40E2332390
:1011E00019F041933150FBCFFC01E20FF11D108249
:1011F0008EEF9FEFA6C021E030E0911102C020E009
:1012000030E0161617061CF4FB01319602C0E1E02F
:10121000F0E02E0F3F1FBB2021F0EB2DF0E03196C8
:1012200002C0E0E0F0E02E0F3F1FE12FF0E02E17AC
:101230003F071CF4121B212F01C020E08E2D887166
:1012400059F4F601822F30E2882319F0319381504E
:10125000FBCFC20ED11C20E0992329F0D6019C932C
:10126000F60131966F0151110BC0F601822F90E308
:10127000882319F091938150FBCFC20ED11C20E03E
:101280000F2D060F9A81342F307144FF03C0913324
:1012900009F40150101624F4093018F008E001C0D8
:1012A00001E0AB0177FF02C040E050E0FB01E41B2E
:1012B000F50BA1E0B0E0AC0FBD1FEA0FFB1F8EE203
:1012C000A82E4B01801A91080B2D10E01195019565
:1012D00011094F3FBFEF5B0721F4D601AC92119685
:1012E0006D01641775072CF08416950614F481813E
:1012F00001C080E3415051093196D60111967D011C
:101300004017510724F0D6018C936701E2CF641790
:10131000750739F4963320F4953319F4311101C06F
:1013200081E3F6018083F701822F90E2882319F090
:1013300091938150FBCFF701E20FF11D108280E005
:1013400090E02996ECE00C94AF0A283008F027E0F2
:101350003327DA01990F311D87FD916000966105F1
:10136000710539F432602E5F3D9330E32A95E1F741
:1013700008959F3F30F080387105610509F03C5FAA
:101380003C5F3D93913008F08068911DDF93CF93CF
:101390001F930F93FF92EF92192F987F9695E92F45
:1013A00096959695E90FFF27EE53FF4F9927332720
:1013B000EE24FF24A701E70105900894079428F480
:1013C000360FE71EF81E491F511D660F771F881F35
:1013D000991F0694A1F70590079428F4E70EF81ECC
:1013E000491F561FC11D770F881F991F661F06943E
:1013F000A1F70590079428F4F80E491F561FC71F40
:10140000D11D880F991F661F771F0694A1F70590BD
:10141000079420F4490F561FC71FD81F990F661F46
:10142000771F881F0694A9F784911095177041F0D3
:10143000D695C79557954795F794E7941A95C1F7B0
:10144000E8E6F0E0689415901591359165919591D5
:1014500005907FE27395E118F10A430B560BC90B17
:10146000D009C0F7E10CF11E431F561FC91FD01D44
:101470007EF4703311F48A95E6CFE894015030F091
:10148000080F0AF40027021708F4202F2395022FD3
:101490007A3328F079E37D932A95E9F710C07D939C
:1014A0002A9589F606949795679537951795179419
:1014B000E118F10A430B560BC90BD00998F023959C
:1014C0007E9173957A3308F070E37C932013B8F71C
:1014D0007E9170617D9330F0839571E37D9370E32D
:1014E0002A95E1F71124EF90FF900F911F91CF9172
:1014F000DF91992787FD90950895DC01FC01672F06
:1015000071917723E1F7329704C07C916D937083DA
:101510006291AE17BF07C8F308952F923F924F9282
:101520005F926F927F928F929F92AF92BF92CF9273
:10153000DF92EF92FF920F931F93CF93DF93CDB77C
:10154000DEB7CA1BDB0B0FB6F894DEBF0FBECDBFF4
:1015500009942A88398848885F846E847D848C84C5
:101560009B84AA84B984C884DF80EE80FD800C81CE
:101570001B81AA81B981CE0FD11D0FB6F894DEBFB1
:0C1580000FBECDBFED010895F894FFCF21
:10158C00304D41535445523A205348543331202B5B
:10159C002048756D6564616428536C6176652920FB
:1015AC002B204D6F746F720D0A0D0A0054454D506F
:1015BC000048554D005241494E0057415445520088
:1015CC00524F4F460057494E444F57005945530010
:1015DC004F4646004E4F20004F4E200045525200C1
:00000001FF
